{
  "contractName": "ERC721Enumerable",
  "abi": [
    {
      "anonymous": false,
      "inputs": [
        {
          "indexed": true,
          "internalType": "address",
          "name": "from",
          "type": "address"
        },
        {
          "indexed": true,
          "internalType": "address",
          "name": "to",
          "type": "address"
        },
        {
          "indexed": true,
          "internalType": "uint256",
          "name": "tokenId",
          "type": "uint256"
        }
      ],
      "name": "Transfer",
      "type": "event"
    },
    {
      "inputs": [
        {
          "internalType": "address",
          "name": "_owner",
          "type": "address"
        }
      ],
      "name": "balanceOf",
      "outputs": [
        {
          "internalType": "uint256",
          "name": "",
          "type": "uint256"
        }
      ],
      "stateMutability": "view",
      "type": "function"
    },
    {
      "inputs": [
        {
          "internalType": "uint256",
          "name": "_tokenId",
          "type": "uint256"
        }
      ],
      "name": "ownerOf",
      "outputs": [
        {
          "internalType": "address",
          "name": "",
          "type": "address"
        }
      ],
      "stateMutability": "view",
      "type": "function"
    },
    {
      "inputs": [],
      "name": "totalSupply",
      "outputs": [
        {
          "internalType": "uint256",
          "name": "",
          "type": "uint256"
        }
      ],
      "stateMutability": "view",
      "type": "function"
    },
    {
      "inputs": [
        {
          "internalType": "uint256",
          "name": "index",
          "type": "uint256"
        }
      ],
      "name": "tokenByIndex",
      "outputs": [
        {
          "internalType": "uint256",
          "name": "",
          "type": "uint256"
        }
      ],
      "stateMutability": "view",
      "type": "function"
    },
    {
      "inputs": [
        {
          "internalType": "address",
          "name": "owner",
          "type": "address"
        },
        {
          "internalType": "uint256",
          "name": "index",
          "type": "uint256"
        }
      ],
      "name": "tokenOfOwnerByIndex",
      "outputs": [
        {
          "internalType": "uint256",
          "name": "",
          "type": "uint256"
        }
      ],
      "stateMutability": "view",
      "type": "function"
    }
  ],
  "bytecode": "0x608060405234801561001057600080fd5b506107a2806100206000396000f3fe608060405234801561001057600080fd5b50600436106100575760003560e01c806318160ddd1461005c5780632f745c591461007a5780634f6ccce7146100aa5780636352211e146100da57806370a082311461010a575b600080fd5b61006461013a565b60405161007191906103e8565b60405180910390f35b610094600480360381019061008f9190610492565b610147565b6040516100a191906103e8565b60405180910390f35b6100c460048036038101906100bf91906104d2565b6101f7565b6040516100d191906103e8565b60405180910390f35b6100f460048036038101906100ef91906104d2565b610268565b604051610101919061050e565b60405180910390f35b610124600480360381019061011f9190610529565b610318565b60405161013191906103e8565b60405180910390f35b6000600280549050905090565b600061015283610318565b8210610193576040517f08c379a000000000000000000000000000000000000000000000000000000000815260040161018a906105d9565b60405180910390fd5b600460008473ffffffffffffffffffffffffffffffffffffffff1673ffffffffffffffffffffffffffffffffffffffff16815260200190815260200160002082815481106101e4576101e36105f9565b5b9060005260206000200154905092915050565b600061020161013a565b8210610242576040517f08c379a000000000000000000000000000000000000000000000000000000000815260040161023990610674565b60405180910390fd5b60028281548110610256576102556105f9565b5b90600052602060002001549050919050565b60008060008084815260200190815260200160002060009054906101000a900473ffffffffffffffffffffffffffffffffffffffff169050600073ffffffffffffffffffffffffffffffffffffffff168173ffffffffffffffffffffffffffffffffffffffff160361030f576040517f08c379a0000000000000000000000000000000000000000000000000000000008152600401610306906106e0565b60405180910390fd5b80915050919050565b60008073ffffffffffffffffffffffffffffffffffffffff168273ffffffffffffffffffffffffffffffffffffffff1603610388576040517f08c379a000000000000000000000000000000000000000000000000000000000815260040161037f9061074c565b60405180910390fd5b600160008373ffffffffffffffffffffffffffffffffffffffff1673ffffffffffffffffffffffffffffffffffffffff168152602001908152602001600020549050919050565b6000819050919050565b6103e2816103cf565b82525050565b60006020820190506103fd60008301846103d9565b92915050565b600080fd5b600073ffffffffffffffffffffffffffffffffffffffff82169050919050565b600061043382610408565b9050919050565b61044381610428565b811461044e57600080fd5b50565b6000813590506104608161043a565b92915050565b61046f816103cf565b811461047a57600080fd5b50565b60008135905061048c81610466565b92915050565b600080604083850312156104a9576104a8610403565b5b60006104b785828601610451565b92505060206104c88582860161047d565b9150509250929050565b6000602082840312156104e8576104e7610403565b5b60006104f68482850161047d565b91505092915050565b61050881610428565b82525050565b600060208201905061052360008301846104ff565b92915050565b60006020828403121561053f5761053e610403565b5b600061054d84828501610451565b91505092915050565b600082825260208201905092915050565b7f6f776e6572277320746f6b656e20696e646578206973206f7574206f6620626f60008201527f756e647300000000000000000000000000000000000000000000000000000000602082015250565b60006105c3602483610556565b91506105ce82610567565b604082019050919050565b600060208201905081810360008301526105f2816105b6565b9050919050565b7f4e487b7100000000000000000000000000000000000000000000000000000000600052603260045260246000fd5b7f676c6f62616c20696e646578206973206f7574206f6620626f756e6473000000600082015250565b600061065e601d83610556565b915061066982610628565b602082019050919050565b6000602082019050818103600083015261068d81610651565b9050919050565b7f717565727920666f72206e6f6e2d6578697374656e7420746f6b656e00000000600082015250565b60006106ca601c83610556565b91506106d582610694565b602082019050919050565b600060208201905081810360008301526106f9816106bd565b9050919050565b7f717565727920666f72206e6f6e2d6578697374656e74206f776e657200000000600082015250565b6000610736601c83610556565b915061074182610700565b602082019050919050565b6000602082019050818103600083015261076581610729565b905091905056fea26469706673582212206bbff45ad71113a3e0e42f2b04d0d4dabe72287591ae4b7d1e8443f0c82f80e864736f6c63430008110033",
  "immutableReferences": {},
  "source": "// SPDX-License-Identifier: MIT\r\n\r\npragma solidity ^0.8.4;\r\n\r\nimport \"./ERC721.sol\";\r\n\r\ncontract ERC721Enumerable is ERC721 {\r\n    uint256[] private _allTokens;\r\n\r\n    mapping(uint256 => uint256) private _allTokensIndex;\r\n\r\n    mapping(address => uint256[]) private _ownedTokens;\r\n\r\n    mapping(uint256 => uint256) private _ownedTokensIndex;\r\n\r\n    function totalSupply() public view returns (uint256) {\r\n        return _allTokens.length;\r\n    }\r\n\r\n    // overide _mint function of ERC721\r\n    function _mint(address to, uint256 tokenId) internal override(ERC721) {\r\n        super._mint(to, tokenId);\r\n        _addTokenToAllTokensEnumeration(tokenId);\r\n        _addTokenToOwnerEnumeration(to, tokenId);\r\n    }\r\n\r\n    function _addTokenToOwnerEnumeration(address to, uint256 tokenId) private {\r\n        _ownedTokens[to].push(tokenId);\r\n        _ownedTokensIndex[tokenId] = _ownedTokens[to].length - 1;\r\n    }\r\n\r\n    function tokenByIndex(uint256 index) public view returns (uint256) {\r\n        require(index < totalSupply(), \"global index is out of bounds\");\r\n        return _allTokens[index];\r\n    }\r\n\r\n    function tokenOfOwnerByIndex(address owner, uint256 index)\r\n        public\r\n        view\r\n        returns (uint256)\r\n    {\r\n        require(\r\n            index < balanceOf(owner),\r\n            \"owner's token index is out of bounds\"\r\n        );\r\n        return _ownedTokens[owner][index];\r\n    }\r\n\r\n    function _addTokenToAllTokensEnumeration(uint256 tokenId) private {\r\n        _allTokensIndex[tokenId] = _allTokens.length;\r\n        _allTokens.push(tokenId);\r\n    }\r\n}\r\n",
  "sourcePath": "C:\\Users\\LHH\\solidity-exercise\\nft-marketplace\\src\\contracts\\ERC721Enumerable.sol",
  "compiler": {
    "name": "solc",
    "version": "0.8.17+commit.8df45f5f.Emscripten.clang"
  },
  "schemaVersion": "3.4.10",
  "updatedAt": "2022-11-11T06:43:37.080Z",
  "devdoc": {
    "kind": "dev",
    "methods": {},
    "version": 1
  },
  "userdoc": {
    "kind": "user",
    "methods": {},
    "version": 1
  }
}