{
  "contractName": "ERC721Enumerable",
  "abi": [
    {
      "inputs": [],
      "stateMutability": "nonpayable",
      "type": "constructor"
    },
    {
      "anonymous": false,
      "inputs": [
        {
          "indexed": true,
          "internalType": "address",
          "name": "_owner",
          "type": "address"
        },
        {
          "indexed": true,
          "internalType": "address",
          "name": "_approved",
          "type": "address"
        },
        {
          "indexed": true,
          "internalType": "uint256",
          "name": "_tokenId",
          "type": "uint256"
        }
      ],
      "name": "Approval",
      "type": "event"
    },
    {
      "anonymous": false,
      "inputs": [
        {
          "indexed": true,
          "internalType": "address",
          "name": "_from",
          "type": "address"
        },
        {
          "indexed": true,
          "internalType": "address",
          "name": "_to",
          "type": "address"
        },
        {
          "indexed": true,
          "internalType": "uint256",
          "name": "_tokenId",
          "type": "uint256"
        }
      ],
      "name": "Transfer",
      "type": "event"
    },
    {
      "inputs": [
        {
          "internalType": "address",
          "name": "_approved",
          "type": "address"
        },
        {
          "internalType": "uint256",
          "name": "_tokenId",
          "type": "uint256"
        }
      ],
      "name": "approve",
      "outputs": [],
      "stateMutability": "nonpayable",
      "type": "function"
    },
    {
      "inputs": [
        {
          "internalType": "address",
          "name": "_owner",
          "type": "address"
        }
      ],
      "name": "balanceOf",
      "outputs": [
        {
          "internalType": "uint256",
          "name": "",
          "type": "uint256"
        }
      ],
      "stateMutability": "view",
      "type": "function"
    },
    {
      "inputs": [
        {
          "internalType": "uint256",
          "name": "tokenId",
          "type": "uint256"
        }
      ],
      "name": "getApproved",
      "outputs": [
        {
          "internalType": "address",
          "name": "",
          "type": "address"
        }
      ],
      "stateMutability": "view",
      "type": "function"
    },
    {
      "inputs": [
        {
          "internalType": "uint256",
          "name": "_tokenId",
          "type": "uint256"
        }
      ],
      "name": "ownerOf",
      "outputs": [
        {
          "internalType": "address",
          "name": "",
          "type": "address"
        }
      ],
      "stateMutability": "view",
      "type": "function"
    },
    {
      "inputs": [
        {
          "internalType": "bytes4",
          "name": "interfaceID",
          "type": "bytes4"
        }
      ],
      "name": "supportsInterface",
      "outputs": [
        {
          "internalType": "bool",
          "name": "",
          "type": "bool"
        }
      ],
      "stateMutability": "view",
      "type": "function"
    },
    {
      "inputs": [
        {
          "internalType": "address",
          "name": "_from",
          "type": "address"
        },
        {
          "internalType": "address",
          "name": "_to",
          "type": "address"
        },
        {
          "internalType": "uint256",
          "name": "_tokenId",
          "type": "uint256"
        }
      ],
      "name": "transferFrom",
      "outputs": [],
      "stateMutability": "nonpayable",
      "type": "function"
    },
    {
      "inputs": [],
      "name": "totalSupply",
      "outputs": [
        {
          "internalType": "uint256",
          "name": "",
          "type": "uint256"
        }
      ],
      "stateMutability": "view",
      "type": "function"
    },
    {
      "inputs": [
        {
          "internalType": "uint256",
          "name": "index",
          "type": "uint256"
        }
      ],
      "name": "tokenByIndex",
      "outputs": [
        {
          "internalType": "uint256",
          "name": "",
          "type": "uint256"
        }
      ],
      "stateMutability": "view",
      "type": "function"
    },
    {
      "inputs": [
        {
          "internalType": "address",
          "name": "owner",
          "type": "address"
        },
        {
          "internalType": "uint256",
          "name": "index",
          "type": "uint256"
        }
      ],
      "name": "tokenOfOwnerByIndex",
      "outputs": [
        {
          "internalType": "uint256",
          "name": "",
          "type": "uint256"
        }
      ],
      "stateMutability": "view",
      "type": "function"
    }
  ],
  "bytecode": "0x60806040523480156200001157600080fd5b50620000437f01ffc9a7a5cef8baa21ed3c5c0d7e23accb804b619e9333b597f47a0d84076e26200015560201b60201c565b620000da7f8c51fd5fcf1f456ec4eb0f32f68d83471264fe082fac12bcbfd2fa4be9eed6c77f22c82707ba960a14c7592ffb6b8cfaa073fed0048a84cc7fa41f6b5bd8e7f2e47f3a6eb71757dfc6e784c1459d26270140c2c147d95ca985c80026fc5301c3eca17f8a7e378434598edc36d108689a030cbc9d7d465de4f74c71bae1028eed6a881b1818186200015560201b60201c565b6200014f7f8230223f691b981717299fae9549350a0d894555723531f02108b1f522c1a7977f6da5e1284143cdd2d15038a59bde3be031250f00291d64494c12d967b3a4e0c37fc53637662700e6c65104059db8bba34439e0c32483ab7c34e3ccae52c739549518186200015560201b60201c565b620002af565b63ffffffff60e01b817bffffffffffffffffffffffffffffffffffffffffffffffffffffffff191603620001c0576040517f08c379a0000000000000000000000000000000000000000000000000000000008152600401620001b7906200028d565b60405180910390fd5b6001600080837bffffffffffffffffffffffffffffffffffffffffffffffffffffffff19167bffffffffffffffffffffffffffffffffffffffffffffffffffffffff1916815260200190815260200160002060006101000a81548160ff02191690831515021790555050565b600082825260208201905092915050565b7f4572726f72202d20496e76616c696420496e7465726661636520494400000000600082015250565b600062000275601c836200022c565b915062000282826200023d565b602082019050919050565b60006020820190508181036000830152620002a88162000266565b9050919050565b61129480620002bf6000396000f3fe608060405234801561001057600080fd5b50600436106100935760003560e01c806323b872dd1161006657806323b872dd146101325780632f745c591461014e5780634f6ccce71461017e5780636352211e146101ae57806370a08231146101de57610093565b806301ffc9a714610098578063081812fc146100c8578063095ea7b3146100f857806318160ddd14610114575b600080fd5b6100b260048036038101906100ad9190610ae2565b61020e565b6040516100bf9190610b2a565b60405180910390f35b6100e260048036038101906100dd9190610b7b565b610275565b6040516100ef9190610be9565b60405180910390f35b610112600480360381019061010d9190610c30565b6102fa565b005b61011c610495565b6040516101299190610c7f565b60405180910390f35b61014c60048036038101906101479190610c9a565b6104a2565b005b61016860048036038101906101639190610c30565b6104c5565b6040516101759190610c7f565b60405180910390f35b61019860048036038101906101939190610b7b565b610575565b6040516101a59190610c7f565b60405180910390f35b6101c860048036038101906101c39190610b7b565b6105e6565b6040516101d59190610be9565b60405180910390f35b6101f860048036038101906101f39190610ced565b610697565b6040516102059190610c7f565b60405180910390f35b6000806000837bffffffffffffffffffffffffffffffffffffffffffffffffffffffff19167bffffffffffffffffffffffffffffffffffffffffffffffffffffffff1916815260200190815260200160002060009054906101000a900460ff169050919050565b60006102808261074e565b6102bf576040517f08c379a00000000000000000000000000000000000000000000000000000000081526004016102b690610d77565b60405180910390fd5b6003600083815260200190815260200160002060009054906101000a900473ffffffffffffffffffffffffffffffffffffffff169050919050565b6000610305826105e6565b90508073ffffffffffffffffffffffffffffffffffffffff163373ffffffffffffffffffffffffffffffffffffffff1614610375576040517f08c379a000000000000000000000000000000000000000000000000000000000815260040161036c90610e09565b60405180910390fd5b8073ffffffffffffffffffffffffffffffffffffffff168373ffffffffffffffffffffffffffffffffffffffff16036103e3576040517f08c379a00000000000000000000000000000000000000000000000000000000081526004016103da90610e75565b60405180910390fd5b826003600084815260200190815260200160002060006101000a81548173ffffffffffffffffffffffffffffffffffffffff021916908373ffffffffffffffffffffffffffffffffffffffff160217905550818373ffffffffffffffffffffffffffffffffffffffff168273ffffffffffffffffffffffffffffffffffffffff167f8c5be1e5ebec7d5bd14f71427d1e84f3dd0314c0f7b2291e5b200ac8c7c3b92560405160405180910390a4505050565b6000600480549050905090565b6104ac33826107c0565b6104b557600080fd5b6104c0838383610844565b505050565b60006104d083610697565b8210610511576040517f08c379a000000000000000000000000000000000000000000000000000000000815260040161050890610f07565b60405180910390fd5b600660008473ffffffffffffffffffffffffffffffffffffffff1673ffffffffffffffffffffffffffffffffffffffff168152602001908152602001600020828154811061056257610561610f27565b5b9060005260206000200154905092915050565b600061057f610495565b82106105c0576040517f08c379a00000000000000000000000000000000000000000000000000000000081526004016105b790610fa2565b60405180910390fd5b600482815481106105d4576105d3610f27565b5b90600052602060002001549050919050565b6000806001600084815260200190815260200160002060009054906101000a900473ffffffffffffffffffffffffffffffffffffffff169050600073ffffffffffffffffffffffffffffffffffffffff168173ffffffffffffffffffffffffffffffffffffffff160361068e576040517f08c379a00000000000000000000000000000000000000000000000000000000081526004016106859061100e565b60405180910390fd5b80915050919050565b60008073ffffffffffffffffffffffffffffffffffffffff168273ffffffffffffffffffffffffffffffffffffffff1603610707576040517f08c379a00000000000000000000000000000000000000000000000000000000081526004016106fe9061107a565b60405180910390fd5b600260008373ffffffffffffffffffffffffffffffffffffffff1673ffffffffffffffffffffffffffffffffffffffff168152602001908152602001600020549050919050565b6000806001600084815260200190815260200160002060009054906101000a900473ffffffffffffffffffffffffffffffffffffffff169050600073ffffffffffffffffffffffffffffffffffffffff168173ffffffffffffffffffffffffffffffffffffffff161415915050919050565b6000806107cc836105e6565b90508073ffffffffffffffffffffffffffffffffffffffff168473ffffffffffffffffffffffffffffffffffffffff16148061083b57508373ffffffffffffffffffffffffffffffffffffffff1661082384610275565b73ffffffffffffffffffffffffffffffffffffffff16145b91505092915050565b600073ffffffffffffffffffffffffffffffffffffffff168273ffffffffffffffffffffffffffffffffffffffff16036108b3576040517f08c379a00000000000000000000000000000000000000000000000000000000081526004016108aa9061110c565b60405180910390fd5b8273ffffffffffffffffffffffffffffffffffffffff166108d3826105e6565b73ffffffffffffffffffffffffffffffffffffffff1614610929576040517f08c379a00000000000000000000000000000000000000000000000000000000081526004016109209061119e565b60405180910390fd5b600260008473ffffffffffffffffffffffffffffffffffffffff1673ffffffffffffffffffffffffffffffffffffffff1681526020019081526020016000206000815480929190610979906111ed565b9190505550816001600083815260200190815260200160002060006101000a81548173ffffffffffffffffffffffffffffffffffffffff021916908373ffffffffffffffffffffffffffffffffffffffff160217905550600260008373ffffffffffffffffffffffffffffffffffffffff1673ffffffffffffffffffffffffffffffffffffffff1681526020019081526020016000206000815480929190610a2090611216565b9190505550808273ffffffffffffffffffffffffffffffffffffffff168473ffffffffffffffffffffffffffffffffffffffff167fddf252ad1be2c89b69c2b068fc378daa952ba7f163c4a11628f55a4df523b3ef60405160405180910390a4505050565b600080fd5b60007fffffffff0000000000000000000000000000000000000000000000000000000082169050919050565b610abf81610a8a565b8114610aca57600080fd5b50565b600081359050610adc81610ab6565b92915050565b600060208284031215610af857610af7610a85565b5b6000610b0684828501610acd565b91505092915050565b60008115159050919050565b610b2481610b0f565b82525050565b6000602082019050610b3f6000830184610b1b565b92915050565b6000819050919050565b610b5881610b45565b8114610b6357600080fd5b50565b600081359050610b7581610b4f565b92915050565b600060208284031215610b9157610b90610a85565b5b6000610b9f84828501610b66565b91505092915050565b600073ffffffffffffffffffffffffffffffffffffffff82169050919050565b6000610bd382610ba8565b9050919050565b610be381610bc8565b82525050565b6000602082019050610bfe6000830184610bda565b92915050565b610c0d81610bc8565b8114610c1857600080fd5b50565b600081359050610c2a81610c04565b92915050565b60008060408385031215610c4757610c46610a85565b5b6000610c5585828601610c1b565b9250506020610c6685828601610b66565b9150509250929050565b610c7981610b45565b82525050565b6000602082019050610c946000830184610c70565b92915050565b600080600060608486031215610cb357610cb2610a85565b5b6000610cc186828701610c1b565b9350506020610cd286828701610c1b565b9250506040610ce386828701610b66565b9150509250925092565b600060208284031215610d0357610d02610a85565b5b6000610d1184828501610c1b565b91505092915050565b600082825260208201905092915050565b7f4572726f72202d20746f6b656e20646f6573206e6f7420657869737400000000600082015250565b6000610d61601c83610d1a565b9150610d6c82610d2b565b602082019050919050565b60006020820190508181036000830152610d9081610d54565b9050919050565b7f4572726f72202d2063616c6c6572206973206e6f7420746865206f776e65722060008201527f6f662074686520746f6b656e0000000000000000000000000000000000000000602082015250565b6000610df3602c83610d1a565b9150610dfe82610d97565b604082019050919050565b60006020820190508181036000830152610e2281610de6565b9050919050565b7f4572726f72202d2063616e6e6f7420617070726f766520796f757273656c6600600082015250565b6000610e5f601f83610d1a565b9150610e6a82610e29565b602082019050919050565b60006020820190508181036000830152610e8e81610e52565b9050919050565b7f6f776e6572277320746f6b656e20696e646578206973206f7574206f6620626f60008201527f756e647300000000000000000000000000000000000000000000000000000000602082015250565b6000610ef1602483610d1a565b9150610efc82610e95565b604082019050919050565b60006020820190508181036000830152610f2081610ee4565b9050919050565b7f4e487b7100000000000000000000000000000000000000000000000000000000600052603260045260246000fd5b7f676c6f62616c20696e646578206973206f7574206f6620626f756e6473000000600082015250565b6000610f8c601d83610d1a565b9150610f9782610f56565b602082019050919050565b60006020820190508181036000830152610fbb81610f7f565b9050919050565b7f717565727920666f72206e6f6e2d6578697374656e7420746f6b656e00000000600082015250565b6000610ff8601c83610d1a565b915061100382610fc2565b602082019050919050565b6000602082019050818103600083015261102781610feb565b9050919050565b7f717565727920666f72206e6f6e2d6578697374656e74206f776e657200000000600082015250565b6000611064601c83610d1a565b915061106f8261102e565b602082019050919050565b6000602082019050818103600083015261109381611057565b9050919050565b7f4572726f72202d20455243373231205472616e7366657220746f20746865207a60008201527f65726f2061646472657373000000000000000000000000000000000000000000602082015250565b60006110f6602b83610d1a565b91506111018261109a565b604082019050919050565b60006020820190508181036000830152611125816110e9565b9050919050565b7f4572726f72202d205472616e73666572206120746f6b656e2066726f6d20616460008201527f6472657373207468617420646f6573276e74206f776e20697400000000000000602082015250565b6000611188603983610d1a565b91506111938261112c565b604082019050919050565b600060208201905081810360008301526111b78161117b565b9050919050565b7f4e487b7100000000000000000000000000000000000000000000000000000000600052601160045260246000fd5b60006111f882610b45565b91506000820361120b5761120a6111be565b5b600182039050919050565b600061122182610b45565b91507fffffffffffffffffffffffffffffffffffffffffffffffffffffffffffffffff8203611253576112526111be565b5b60018201905091905056fea26469706673582212208af4b75a6c5a2cd80d3a7eb4ce08bffbcbe289c982f76ad13046a9f77f8002a864736f6c63430008110033",
  "immutableReferences": {},
  "source": "// SPDX-License-Identifier: MIT\r\n\r\npragma solidity ^0.8.4;\r\n\r\nimport \"./ERC721.sol\";\r\nimport \"./interfaces/IERC721Enumerable.sol\";\r\n\r\ncontract ERC721Enumerable is IERC721Enumerable, ERC721 {\r\n    uint256[] private _allTokens;\r\n\r\n    mapping(uint256 => uint256) private _allTokensIndex;\r\n\r\n    mapping(address => uint256[]) private _ownedTokens;\r\n\r\n    mapping(uint256 => uint256) private _ownedTokensIndex;\r\n\r\n    constructor() {\r\n        _registerInterface(\r\n            bytes4(keccak256(\"totalSupply(bytes4)\")) ^\r\n                bytes4(keccak256(\"tokenByIndex(bytes4)\")) ^\r\n                bytes4(keccak256(\"tokenOfOwnerByIndex(bytes4)\"))\r\n        );\r\n    }\r\n\r\n    function totalSupply() public view returns (uint256) {\r\n        return _allTokens.length;\r\n    }\r\n\r\n    // overide _mint function of ERC721\r\n    function _mint(address to, uint256 tokenId) internal override(ERC721) {\r\n        super._mint(to, tokenId);\r\n        _addTokenToAllTokensEnumeration(tokenId);\r\n        _addTokenToOwnerEnumeration(to, tokenId);\r\n    }\r\n\r\n    function _addTokenToOwnerEnumeration(address to, uint256 tokenId) private {\r\n        _ownedTokens[to].push(tokenId);\r\n        _ownedTokensIndex[tokenId] = _ownedTokens[to].length - 1;\r\n    }\r\n\r\n    function tokenByIndex(uint256 index) public view returns (uint256) {\r\n        require(index < totalSupply(), \"global index is out of bounds\");\r\n        return _allTokens[index];\r\n    }\r\n\r\n    function tokenOfOwnerByIndex(address owner, uint256 index)\r\n        public\r\n        view\r\n        returns (uint256)\r\n    {\r\n        require(\r\n            index < balanceOf(owner),\r\n            \"owner's token index is out of bounds\"\r\n        );\r\n        return _ownedTokens[owner][index];\r\n    }\r\n\r\n    function _addTokenToAllTokensEnumeration(uint256 tokenId) private {\r\n        _allTokensIndex[tokenId] = _allTokens.length;\r\n        _allTokens.push(tokenId);\r\n    }\r\n}\r\n",
  "sourcePath": "C:\\Users\\LHH\\solidity-exercise\\nft-marketplace\\src\\contracts\\ERC721Enumerable.sol",
  "compiler": {
    "name": "solc",
    "version": "0.8.17+commit.8df45f5f.Emscripten.clang"
  },
  "schemaVersion": "3.4.10",
  "updatedAt": "2022-11-14T08:39:26.418Z",
  "devdoc": {
    "kind": "dev",
    "methods": {
      "approve(address,uint256)": {
        "details": "The zero address indicates there is no approved address.  Throws unless `msg.sender` is the current NFT owner, or an authorized  operator of the current owner.",
        "params": {
          "_approved": "The new approved NFT controller",
          "_tokenId": "The NFT to approve"
        }
      },
      "balanceOf(address)": {
        "details": "NFTs assigned to the zero address are considered invalid, and this  function throws for queries about the zero address.",
        "params": {
          "_owner": "An address for whom to query the balance"
        },
        "returns": {
          "_0": "The number of NFTs owned by `_owner`, possibly zero"
        }
      },
      "ownerOf(uint256)": {
        "details": "NFTs assigned to zero address are considered invalid, and queries  about them do throw.",
        "params": {
          "_tokenId": "The identifier for an NFT"
        },
        "returns": {
          "_0": "The address of the owner of the NFT"
        }
      },
      "supportsInterface(bytes4)": {
        "details": "Interface identification is specified in ERC-165. This function  uses less than 30,000 gas.",
        "params": {
          "interfaceID": "The interface identifier, as specified in ERC-165"
        },
        "returns": {
          "_0": "`true` if the contract implements `interfaceID` and  `interfaceID` is not 0xffffffff, `false` otherwise"
        }
      },
      "totalSupply()": {
        "returns": {
          "_0": "A count of valid NFTs tracked by this contract, where each one of  them has an assigned and queryable owner not equal to the zero address"
        }
      },
      "transferFrom(address,address,uint256)": {
        "details": "Throws unless `msg.sender` is the current owner, an authorized  operator, or the approved address for this NFT. Throws if `_from` is  not the current owner. Throws if `_to` is the zero address. Throws if  `_tokenId` is not a valid NFT.",
        "params": {
          "_from": "The current owner of the NFT",
          "_to": "The new owner",
          "_tokenId": "The NFT to transfer"
        }
      }
    },
    "version": 1
  },
  "userdoc": {
    "kind": "user",
    "methods": {
      "approve(address,uint256)": {
        "notice": "Change or reaffirm the approved address for an NFT"
      },
      "balanceOf(address)": {
        "notice": "Count all NFTs assigned to an owner"
      },
      "ownerOf(uint256)": {
        "notice": "Find the owner of an NFT"
      },
      "supportsInterface(bytes4)": {
        "notice": "Query if a contract implements an interface"
      },
      "totalSupply()": {
        "notice": "Count NFTs tracked by this contract"
      },
      "transferFrom(address,address,uint256)": {
        "notice": "Transfer ownership of an NFT -- THE CALLER IS RESPONSIBLE  TO CONFIRM THAT `_to` IS CAPABLE OF RECEIVING NFTS OR ELSE  THEY MAY BE PERMANENTLY LOST"
      }
    },
    "version": 1
  }
}