{
  "contractName": "ERC721",
  "abi": [
    {
      "anonymous": false,
      "inputs": [
        {
          "indexed": true,
          "internalType": "address",
          "name": "owner",
          "type": "address"
        },
        {
          "indexed": true,
          "internalType": "address",
          "name": "approved",
          "type": "address"
        },
        {
          "indexed": true,
          "internalType": "uint256",
          "name": "tokenId",
          "type": "uint256"
        }
      ],
      "name": "Approval",
      "type": "event"
    },
    {
      "anonymous": false,
      "inputs": [
        {
          "indexed": true,
          "internalType": "address",
          "name": "from",
          "type": "address"
        },
        {
          "indexed": true,
          "internalType": "address",
          "name": "to",
          "type": "address"
        },
        {
          "indexed": true,
          "internalType": "uint256",
          "name": "tokenId",
          "type": "uint256"
        }
      ],
      "name": "Transfer",
      "type": "event"
    },
    {
      "inputs": [
        {
          "internalType": "address",
          "name": "_owner",
          "type": "address"
        }
      ],
      "name": "balanceOf",
      "outputs": [
        {
          "internalType": "uint256",
          "name": "",
          "type": "uint256"
        }
      ],
      "stateMutability": "view",
      "type": "function"
    },
    {
      "inputs": [
        {
          "internalType": "uint256",
          "name": "_tokenId",
          "type": "uint256"
        }
      ],
      "name": "ownerOf",
      "outputs": [
        {
          "internalType": "address",
          "name": "",
          "type": "address"
        }
      ],
      "stateMutability": "view",
      "type": "function"
    },
    {
      "inputs": [
        {
          "internalType": "address",
          "name": "_from",
          "type": "address"
        },
        {
          "internalType": "address",
          "name": "_to",
          "type": "address"
        },
        {
          "internalType": "uint256",
          "name": "_tokenId",
          "type": "uint256"
        }
      ],
      "name": "transferFrom",
      "outputs": [],
      "stateMutability": "nonpayable",
      "type": "function"
    },
    {
      "inputs": [
        {
          "internalType": "address",
          "name": "_to",
          "type": "address"
        },
        {
          "internalType": "uint256",
          "name": "_tokenId",
          "type": "uint256"
        }
      ],
      "name": "approve",
      "outputs": [],
      "stateMutability": "nonpayable",
      "type": "function"
    },
    {
      "inputs": [
        {
          "internalType": "uint256",
          "name": "tokenId",
          "type": "uint256"
        }
      ],
      "name": "getApproved",
      "outputs": [
        {
          "internalType": "address",
          "name": "",
          "type": "address"
        }
      ],
      "stateMutability": "view",
      "type": "function"
    }
  ],
  "bytecode": "0x608060405234801561001057600080fd5b50610e2a806100206000396000f3fe608060405234801561001057600080fd5b50600436106100575760003560e01c8063081812fc1461005c578063095ea7b31461008c57806323b872dd146100a85780636352211e146100c457806370a08231146100f4575b600080fd5b6100766004803603810190610071919061083e565b610124565b60405161008391906108ac565b60405180910390f35b6100a660048036038101906100a191906108f3565b6101a9565b005b6100c260048036038101906100bd9190610933565b610344565b005b6100de60048036038101906100d9919061083e565b610367565b6040516100eb91906108ac565b60405180910390f35b61010e60048036038101906101099190610986565b610417565b60405161011b91906109c2565b60405180910390f35b600061012f826104ce565b61016e576040517f08c379a000000000000000000000000000000000000000000000000000000000815260040161016590610a3a565b60405180910390fd5b6002600083815260200190815260200160002060009054906101000a900473ffffffffffffffffffffffffffffffffffffffff169050919050565b60006101b482610367565b90508073ffffffffffffffffffffffffffffffffffffffff163373ffffffffffffffffffffffffffffffffffffffff1614610224576040517f08c379a000000000000000000000000000000000000000000000000000000000815260040161021b90610acc565b60405180910390fd5b8073ffffffffffffffffffffffffffffffffffffffff168373ffffffffffffffffffffffffffffffffffffffff1603610292576040517f08c379a000000000000000000000000000000000000000000000000000000000815260040161028990610b38565b60405180910390fd5b826002600084815260200190815260200160002060006101000a81548173ffffffffffffffffffffffffffffffffffffffff021916908373ffffffffffffffffffffffffffffffffffffffff160217905550818373ffffffffffffffffffffffffffffffffffffffff168273ffffffffffffffffffffffffffffffffffffffff167f8c5be1e5ebec7d5bd14f71427d1e84f3dd0314c0f7b2291e5b200ac8c7c3b92560405160405180910390a4505050565b61034e338261053f565b61035757600080fd5b6103628383836105c3565b505050565b60008060008084815260200190815260200160002060009054906101000a900473ffffffffffffffffffffffffffffffffffffffff169050600073ffffffffffffffffffffffffffffffffffffffff168173ffffffffffffffffffffffffffffffffffffffff160361040e576040517f08c379a000000000000000000000000000000000000000000000000000000000815260040161040590610ba4565b60405180910390fd5b80915050919050565b60008073ffffffffffffffffffffffffffffffffffffffff168273ffffffffffffffffffffffffffffffffffffffff1603610487576040517f08c379a000000000000000000000000000000000000000000000000000000000815260040161047e90610c10565b60405180910390fd5b600160008373ffffffffffffffffffffffffffffffffffffffff1673ffffffffffffffffffffffffffffffffffffffff168152602001908152602001600020549050919050565b60008060008084815260200190815260200160002060009054906101000a900473ffffffffffffffffffffffffffffffffffffffff169050600073ffffffffffffffffffffffffffffffffffffffff168173ffffffffffffffffffffffffffffffffffffffff161415915050919050565b60008061054b83610367565b90508073ffffffffffffffffffffffffffffffffffffffff168473ffffffffffffffffffffffffffffffffffffffff1614806105ba57508373ffffffffffffffffffffffffffffffffffffffff166105a284610124565b73ffffffffffffffffffffffffffffffffffffffff16145b91505092915050565b600073ffffffffffffffffffffffffffffffffffffffff168273ffffffffffffffffffffffffffffffffffffffff1603610632576040517f08c379a000000000000000000000000000000000000000000000000000000000815260040161062990610ca2565b60405180910390fd5b8273ffffffffffffffffffffffffffffffffffffffff1661065282610367565b73ffffffffffffffffffffffffffffffffffffffff16146106a8576040517f08c379a000000000000000000000000000000000000000000000000000000000815260040161069f90610d34565b60405180910390fd5b600160008473ffffffffffffffffffffffffffffffffffffffff1673ffffffffffffffffffffffffffffffffffffffff16815260200190815260200160002060008154809291906106f890610d83565b91905055508160008083815260200190815260200160002060006101000a81548173ffffffffffffffffffffffffffffffffffffffff021916908373ffffffffffffffffffffffffffffffffffffffff160217905550600160008373ffffffffffffffffffffffffffffffffffffffff1673ffffffffffffffffffffffffffffffffffffffff168152602001908152602001600020600081548092919061079e90610dac565b9190505550808273ffffffffffffffffffffffffffffffffffffffff168473ffffffffffffffffffffffffffffffffffffffff167fddf252ad1be2c89b69c2b068fc378daa952ba7f163c4a11628f55a4df523b3ef60405160405180910390a4505050565b600080fd5b6000819050919050565b61081b81610808565b811461082657600080fd5b50565b60008135905061083881610812565b92915050565b60006020828403121561085457610853610803565b5b600061086284828501610829565b91505092915050565b600073ffffffffffffffffffffffffffffffffffffffff82169050919050565b60006108968261086b565b9050919050565b6108a68161088b565b82525050565b60006020820190506108c1600083018461089d565b92915050565b6108d08161088b565b81146108db57600080fd5b50565b6000813590506108ed816108c7565b92915050565b6000806040838503121561090a57610909610803565b5b6000610918858286016108de565b925050602061092985828601610829565b9150509250929050565b60008060006060848603121561094c5761094b610803565b5b600061095a868287016108de565b935050602061096b868287016108de565b925050604061097c86828701610829565b9150509250925092565b60006020828403121561099c5761099b610803565b5b60006109aa848285016108de565b91505092915050565b6109bc81610808565b82525050565b60006020820190506109d760008301846109b3565b92915050565b600082825260208201905092915050565b7f4572726f72202d20746f6b656e20646f6573206e6f7420657869737400000000600082015250565b6000610a24601c836109dd565b9150610a2f826109ee565b602082019050919050565b60006020820190508181036000830152610a5381610a17565b9050919050565b7f4572726f72202d2063616c6c6572206973206e6f7420746865206f776e65722060008201527f6f662074686520746f6b656e0000000000000000000000000000000000000000602082015250565b6000610ab6602c836109dd565b9150610ac182610a5a565b604082019050919050565b60006020820190508181036000830152610ae581610aa9565b9050919050565b7f4572726f72202d2063616e6e6f7420617070726f766520796f757273656c6600600082015250565b6000610b22601f836109dd565b9150610b2d82610aec565b602082019050919050565b60006020820190508181036000830152610b5181610b15565b9050919050565b7f717565727920666f72206e6f6e2d6578697374656e7420746f6b656e00000000600082015250565b6000610b8e601c836109dd565b9150610b9982610b58565b602082019050919050565b60006020820190508181036000830152610bbd81610b81565b9050919050565b7f717565727920666f72206e6f6e2d6578697374656e74206f776e657200000000600082015250565b6000610bfa601c836109dd565b9150610c0582610bc4565b602082019050919050565b60006020820190508181036000830152610c2981610bed565b9050919050565b7f4572726f72202d20455243373231205472616e7366657220746f20746865207a60008201527f65726f2061646472657373000000000000000000000000000000000000000000602082015250565b6000610c8c602b836109dd565b9150610c9782610c30565b604082019050919050565b60006020820190508181036000830152610cbb81610c7f565b9050919050565b7f4572726f72202d205472616e73666572206120746f6b656e2066726f6d20616460008201527f6472657373207468617420646f6573276e74206f776e20697400000000000000602082015250565b6000610d1e6039836109dd565b9150610d2982610cc2565b604082019050919050565b60006020820190508181036000830152610d4d81610d11565b9050919050565b7f4e487b7100000000000000000000000000000000000000000000000000000000600052601160045260246000fd5b6000610d8e82610808565b915060008203610da157610da0610d54565b5b600182039050919050565b6000610db782610808565b91507fffffffffffffffffffffffffffffffffffffffffffffffffffffffffffffffff8203610de957610de8610d54565b5b60018201905091905056fea2646970667358221220ce003d4a355b213bea0515feef3f1247b9c15293d6bde732b84a4e5e9f895ac064736f6c63430008110033",
  "immutableReferences": {},
  "source": "// SPDX-License-Identifier: MIT\r\n\r\npragma solidity ^0.8.4;\r\n\r\n/*\r\n    building out the minting function \r\n\r\n    a. nft to point to an address\r\n    b. keep track of the token ids\r\n    c. keep track of token owner addresses to token ids\r\n    d. keep track of how many tokens an owner address has\r\n    e. create an event that emits a transfer log - contract address, where it is being minted to, the id\r\n */\r\ncontract ERC721 {\r\n    event Transfer(\r\n        address indexed from,\r\n        address indexed to,\r\n        uint256 indexed tokenId\r\n    );\r\n\r\n    event Approval(\r\n        address indexed owner,\r\n        address indexed approved,\r\n        uint256 indexed tokenId\r\n    );\r\n\r\n    // Mapping from token id to the owner\r\n    mapping(uint256 => address) private _tokenOwner;\r\n\r\n    // Mapping from owner to the number of owned tokens\r\n    mapping(address => uint256) private _ownedTokensCount;\r\n\r\n    // Mapping from token id to approved addresses\r\n    mapping(uint256 => address) private _tokenApprovals;\r\n\r\n    function balanceOf(address _owner) public view returns (uint256) {\r\n        require(_owner != address(0), \"query for non-existent owner\");\r\n        return _ownedTokensCount[_owner];\r\n    }\r\n\r\n    function ownerOf(uint256 _tokenId) public view returns (address) {\r\n        address owner = _tokenOwner[_tokenId];\r\n        require(owner != address(0), \"query for non-existent token\");\r\n        return owner;\r\n    }\r\n\r\n    function _exists(uint256 tokenId) internal view returns (bool) {\r\n        address owner = _tokenOwner[tokenId];\r\n        return owner != address(0);\r\n    }\r\n\r\n    function _mint(address to, uint256 tokenId) internal virtual {\r\n        // requires that the address is not zero\r\n        require(to != address(0), \"ERC721: minting to the zero address\");\r\n        // requires that the token does not minted yet\r\n        require(!_exists(tokenId), \"ERC721: token already minted\");\r\n\r\n        _tokenOwner[tokenId] = to;\r\n        _ownedTokensCount[to]++;\r\n\r\n        emit Transfer(address(0), to, tokenId);\r\n    }\r\n\r\n    function _transferFrom(\r\n        address _from,\r\n        address _to,\r\n        uint256 _tokenId\r\n    ) internal {\r\n        require(\r\n            _to != address(0),\r\n            \"Error - ERC721 Transfer to the zero address\"\r\n        );\r\n        require(\r\n            ownerOf(_tokenId) == _from,\r\n            \"Error - Transfer a token from address that does'nt own it\"\r\n        );\r\n        _ownedTokensCount[_from]--;\r\n        _tokenOwner[_tokenId] = _to;\r\n        _ownedTokensCount[_to]++;\r\n\r\n        emit Transfer(_from, _to, _tokenId);\r\n    }\r\n\r\n    function transferFrom(\r\n        address _from,\r\n        address _to,\r\n        uint256 _tokenId\r\n    ) public {\r\n        require(isApprovedOrOwner(msg.sender, _tokenId));\r\n        _transferFrom(_from, _to, _tokenId);\r\n    }\r\n\r\n    function approve(address _to, uint256 _tokenId) public {\r\n        address owner = ownerOf(_tokenId);\r\n        require(\r\n            msg.sender == owner,\r\n            \"Error - caller is not the owner of the token\"\r\n        );\r\n        require(_to != owner, \"Error - cannot approve yourself\");\r\n\r\n        _tokenApprovals[_tokenId] = _to;\r\n\r\n        emit Approval(owner, _to, _tokenId);\r\n    }\r\n\r\n    function isApprovedOrOwner(address spender, uint256 tokenId)\r\n        internal\r\n        view\r\n        returns (bool)\r\n    {\r\n        address owner = ownerOf(tokenId);\r\n        return (spender == owner || getApproved(tokenId) == spender);\r\n    }\r\n\r\n    function getApproved(uint256 tokenId) public view returns (address) {\r\n        require(_exists(tokenId), \"Error - token does not exist\");\r\n\r\n        return _tokenApprovals[tokenId];\r\n    }\r\n}\r\n",
  "sourcePath": "C:\\Users\\LHH\\solidity-exercise\\nft-marketplace\\src\\contracts\\ERC721.sol",
  "compiler": {
    "name": "solc",
    "version": "0.8.17+commit.8df45f5f.Emscripten.clang"
  },
  "schemaVersion": "3.4.10",
  "updatedAt": "2022-11-12T05:53:29.383Z",
  "devdoc": {
    "kind": "dev",
    "methods": {},
    "version": 1
  },
  "userdoc": {
    "kind": "user",
    "methods": {},
    "version": 1
  }
}