{
  "contractName": "KryptoBirdz",
  "abi": [
    {
      "inputs": [],
      "stateMutability": "nonpayable",
      "type": "constructor"
    },
    {
      "anonymous": false,
      "inputs": [
        {
          "indexed": true,
          "internalType": "address",
          "name": "from",
          "type": "address"
        },
        {
          "indexed": true,
          "internalType": "address",
          "name": "to",
          "type": "address"
        },
        {
          "indexed": true,
          "internalType": "uint256",
          "name": "tokenId",
          "type": "uint256"
        }
      ],
      "name": "Transfer",
      "type": "event"
    },
    {
      "inputs": [
        {
          "internalType": "uint256",
          "name": "",
          "type": "uint256"
        }
      ],
      "name": "kryptoBirds",
      "outputs": [
        {
          "internalType": "string",
          "name": "",
          "type": "string"
        }
      ],
      "stateMutability": "view",
      "type": "function",
      "constant": true
    },
    {
      "inputs": [],
      "name": "name",
      "outputs": [
        {
          "internalType": "string",
          "name": "",
          "type": "string"
        }
      ],
      "stateMutability": "view",
      "type": "function",
      "constant": true
    },
    {
      "inputs": [],
      "name": "symbol",
      "outputs": [
        {
          "internalType": "string",
          "name": "",
          "type": "string"
        }
      ],
      "stateMutability": "view",
      "type": "function",
      "constant": true
    },
    {
      "inputs": [
        {
          "internalType": "string",
          "name": "_kryptoBird",
          "type": "string"
        }
      ],
      "name": "mint",
      "outputs": [],
      "stateMutability": "nonpayable",
      "type": "function"
    }
  ],
  "bytecode": "0x60806040523480156200001157600080fd5b506040518060400160405280600b81526020017f4b727970746f426972647a0000000000000000000000000000000000000000008152506040518060400160405280600681526020017f4b424952445a00000000000000000000000000000000000000000000000000008152508181816000908162000091919062000328565b508060019081620000a3919062000328565b50505050506200040f565b600081519050919050565b7f4e487b7100000000000000000000000000000000000000000000000000000000600052604160045260246000fd5b7f4e487b7100000000000000000000000000000000000000000000000000000000600052602260045260246000fd5b600060028204905060018216806200013057607f821691505b602082108103620001465762000145620000e8565b5b50919050565b60008190508160005260206000209050919050565b60006020601f8301049050919050565b600082821b905092915050565b600060088302620001b07fffffffffffffffffffffffffffffffffffffffffffffffffffffffffffffffff8262000171565b620001bc868362000171565b95508019841693508086168417925050509392505050565b6000819050919050565b6000819050919050565b60006200020962000203620001fd84620001d4565b620001de565b620001d4565b9050919050565b6000819050919050565b6200022583620001e8565b6200023d620002348262000210565b8484546200017e565b825550505050565b600090565b6200025462000245565b620002618184846200021a565b505050565b5b8181101562000289576200027d6000826200024a565b60018101905062000267565b5050565b601f821115620002d857620002a2816200014c565b620002ad8462000161565b81016020851015620002bd578190505b620002d5620002cc8562000161565b83018262000266565b50505b505050565b600082821c905092915050565b6000620002fd60001984600802620002dd565b1980831691505092915050565b6000620003188383620002ea565b9150826002028217905092915050565b6200033382620000ae565b67ffffffffffffffff8111156200034f576200034e620000b9565b5b6200035b825462000117565b620003688282856200028d565b600060209050601f831160018114620003a057600084156200038b578287015190505b6200039785826200030a565b86555062000407565b601f198416620003b0866200014c565b60005b82811015620003da57848901518255600182019150602085019450602081019050620003b3565b86831015620003fa5784890151620003f6601f891682620002ea565b8355505b6001600288020188555050505b505050505050565b610df9806200041f6000396000f3fe608060405234801561001057600080fd5b506004361061004c5760003560e01c806306fdde031461005157806395d89b411461006f578063b20dac5f1461008d578063d85d3d27146100bd575b600080fd5b6100596100d9565b6040516100669190610666565b60405180910390f35b61007761016b565b6040516100849190610666565b60405180910390f35b6100a760048036038101906100a291906106d2565b6101fd565b6040516100b49190610666565b60405180910390f35b6100d760048036038101906100d29190610834565b6102a9565b005b6060600080546100e8906108ac565b80601f0160208091040260200160405190810160405280929190818152602001828054610114906108ac565b80156101615780601f1061013657610100808354040283529160200191610161565b820191906000526020600020905b81548152906001019060200180831161014457829003601f168201915b5050505050905090565b60606001805461017a906108ac565b80601f01602080910402602001604051908101604052809291908181526020018280546101a6906108ac565b80156101f35780601f106101c8576101008083540402835291602001916101f3565b820191906000526020600020905b8154815290600101906020018083116101d657829003601f168201915b5050505050905090565b6004818154811061020d57600080fd5b906000526020600020016000915090508054610228906108ac565b80601f0160208091040260200160405190810160405280929190818152602001828054610254906108ac565b80156102a15780601f10610276576101008083540402835291602001916102a1565b820191906000526020600020905b81548152906001019060200180831161028457829003601f168201915b505050505081565b6005816040516102b99190610919565b908152602001604051809103902060009054906101000a900460ff1615610315576040517f08c379a000000000000000000000000000000000000000000000000000000000815260040161030c9061097c565b60405180910390fd5b6004819080600181540180825580915050600190039060005260206000200160009091909190915090816103499190610b48565b506000600160048054905061035e9190610c49565b905061036a33826103a5565b600160058360405161037c9190610919565b908152602001604051809103902060006101000a81548160ff0219169083151502179055505050565b600073ffffffffffffffffffffffffffffffffffffffff168273ffffffffffffffffffffffffffffffffffffffff1603610414576040517f08c379a000000000000000000000000000000000000000000000000000000000815260040161040b90610cef565b60405180910390fd5b61041d81610564565b1561045d576040517f08c379a000000000000000000000000000000000000000000000000000000000815260040161045490610d5b565b60405180910390fd5b816002600083815260200190815260200160002060006101000a81548173ffffffffffffffffffffffffffffffffffffffff021916908373ffffffffffffffffffffffffffffffffffffffff160217905550600360008373ffffffffffffffffffffffffffffffffffffffff1673ffffffffffffffffffffffffffffffffffffffff16815260200190815260200160002060008154809291906104ff90610d7b565b9190505550808273ffffffffffffffffffffffffffffffffffffffff16600073ffffffffffffffffffffffffffffffffffffffff167fddf252ad1be2c89b69c2b068fc378daa952ba7f163c4a11628f55a4df523b3ef60405160405180910390a45050565b6000806002600084815260200190815260200160002060009054906101000a900473ffffffffffffffffffffffffffffffffffffffff169050600073ffffffffffffffffffffffffffffffffffffffff168173ffffffffffffffffffffffffffffffffffffffff161415915050919050565b600081519050919050565b600082825260208201905092915050565b60005b838110156106105780820151818401526020810190506105f5565b60008484015250505050565b6000601f19601f8301169050919050565b6000610638826105d6565b61064281856105e1565b93506106528185602086016105f2565b61065b8161061c565b840191505092915050565b60006020820190508181036000830152610680818461062d565b905092915050565b6000604051905090565b600080fd5b600080fd5b6000819050919050565b6106af8161069c565b81146106ba57600080fd5b50565b6000813590506106cc816106a6565b92915050565b6000602082840312156106e8576106e7610692565b5b60006106f6848285016106bd565b91505092915050565b600080fd5b600080fd5b7f4e487b7100000000000000000000000000000000000000000000000000000000600052604160045260246000fd5b6107418261061c565b810181811067ffffffffffffffff821117156107605761075f610709565b5b80604052505050565b6000610773610688565b905061077f8282610738565b919050565b600067ffffffffffffffff82111561079f5761079e610709565b5b6107a88261061c565b9050602081019050919050565b82818337600083830152505050565b60006107d76107d284610784565b610769565b9050828152602081018484840111156107f3576107f2610704565b5b6107fe8482856107b5565b509392505050565b600082601f83011261081b5761081a6106ff565b5b813561082b8482602086016107c4565b91505092915050565b60006020828403121561084a57610849610692565b5b600082013567ffffffffffffffff81111561086857610867610697565b5b61087484828501610806565b91505092915050565b7f4e487b7100000000000000000000000000000000000000000000000000000000600052602260045260246000fd5b600060028204905060018216806108c457607f821691505b6020821081036108d7576108d661087d565b5b50919050565b600081905092915050565b60006108f3826105d6565b6108fd81856108dd565b935061090d8185602086016105f2565b80840191505092915050565b600061092582846108e8565b915081905092915050565b7f4572726f723a206b727970746f4269726420616c726561647920657869737473600082015250565b60006109666020836105e1565b915061097182610930565b602082019050919050565b6000602082019050818103600083015261099581610959565b9050919050565b60008190508160005260206000209050919050565b60006020601f8301049050919050565b600082821b905092915050565b6000600883026109fe7fffffffffffffffffffffffffffffffffffffffffffffffffffffffffffffffff826109c1565b610a0886836109c1565b95508019841693508086168417925050509392505050565b6000819050919050565b6000610a45610a40610a3b8461069c565b610a20565b61069c565b9050919050565b6000819050919050565b610a5f83610a2a565b610a73610a6b82610a4c565b8484546109ce565b825550505050565b600090565b610a88610a7b565b610a93818484610a56565b505050565b5b81811015610ab757610aac600082610a80565b600181019050610a99565b5050565b601f821115610afc57610acd8161099c565b610ad6846109b1565b81016020851015610ae5578190505b610af9610af1856109b1565b830182610a98565b50505b505050565b600082821c905092915050565b6000610b1f60001984600802610b01565b1980831691505092915050565b6000610b388383610b0e565b9150826002028217905092915050565b610b51826105d6565b67ffffffffffffffff811115610b6a57610b69610709565b5b610b7482546108ac565b610b7f828285610abb565b600060209050601f831160018114610bb25760008415610ba0578287015190505b610baa8582610b2c565b865550610c12565b601f198416610bc08661099c565b60005b82811015610be857848901518255600182019150602085019450602081019050610bc3565b86831015610c055784890151610c01601f891682610b0e565b8355505b6001600288020188555050505b505050505050565b7f4e487b7100000000000000000000000000000000000000000000000000000000600052601160045260246000fd5b6000610c548261069c565b9150610c5f8361069c565b9250828203905081811115610c7757610c76610c1a565b5b92915050565b7f4552433732313a206d696e74696e6720746f20746865207a65726f206164647260008201527f6573730000000000000000000000000000000000000000000000000000000000602082015250565b6000610cd96023836105e1565b9150610ce482610c7d565b604082019050919050565b60006020820190508181036000830152610d0881610ccc565b9050919050565b7f4552433732313a20746f6b656e20616c7265616479206d696e74656400000000600082015250565b6000610d45601c836105e1565b9150610d5082610d0f565b602082019050919050565b60006020820190508181036000830152610d7481610d38565b9050919050565b6000610d868261069c565b91507fffffffffffffffffffffffffffffffffffffffffffffffffffffffffffffffff8203610db857610db7610c1a565b5b60018201905091905056fea2646970667358221220ee42083e7dd59b237affc615c47d7c222e148961d79fb2f9fb1f329f7946c0ab64736f6c63430008110033",
  "immutableReferences": {},
  "source": "// SPDX-License-Identifier: MIT\r\n\r\npragma solidity ^0.8.4;\r\n\r\nimport \"./ERC721Connector.sol\";\r\n\r\ncontract KryptoBirdz is ERC721Connector {\r\n    string[] public kryptoBirds;\r\n\r\n    mapping(string => bool) _kryptoBirdExists;\r\n\r\n    constructor() ERC721Connector(\"KryptoBirdz\", \"KBIRDZ\") {}\r\n\r\n    function mint(string memory _kryptoBird) public {\r\n        require(\r\n            !_kryptoBirdExists[_kryptoBird],\r\n            \"Error: kryptoBird already exists\"\r\n        );\r\n        kryptoBirds.push(_kryptoBird);\r\n        uint256 _id = kryptoBirds.length - 1;\r\n\r\n        _mint(msg.sender, _id);\r\n        _kryptoBirdExists[_kryptoBird] = true;\r\n    }\r\n}\r\n",
  "sourcePath": "C:\\Users\\LHH\\solidity-exercise\\nft-marketplace\\src\\contracts\\KryptoBirdz.sol",
  "compiler": {
    "name": "solc",
    "version": "0.8.17+commit.8df45f5f.Emscripten.clang"
  },
  "schemaVersion": "3.4.10",
  "updatedAt": "2022-11-10T08:55:33.158Z",
  "networkType": "ethereum",
  "devdoc": {
    "kind": "dev",
    "methods": {},
    "version": 1
  },
  "userdoc": {
    "kind": "user",
    "methods": {},
    "version": 1
  }
}